{
    "contractName": "Wallet",
    "abi": [
        {
            "inputs": [
                {
                    "internalType": "address[]",
                    "name": "_owners",
                    "type": "address[]"
                },
                {
                    "internalType": "uint256",
                    "name": "_numConfirmationsRequired",
                    "type": "uint256"
                }
            ],
            "stateMutability": "nonpayable",
            "type": "constructor"
        },
        {
            "anonymous": false,
            "inputs": [
                {
                    "indexed": true,
                    "internalType": "address",
                    "name": "owner",
                    "type": "address"
                },
                {
                    "indexed": true,
                    "internalType": "uint256",
                    "name": "txIndex",
                    "type": "uint256"
                }
            ],
            "name": "ConfirmTxn",
            "type": "event"
        },
        {
            "anonymous": false,
            "inputs": [
                {
                    "indexed": true,
                    "internalType": "address",
                    "name": "sender",
                    "type": "address"
                },
                {
                    "indexed": false,
                    "internalType": "uint256",
                    "name": "amount",
                    "type": "uint256"
                },
                {
                    "indexed": false,
                    "internalType": "uint256",
                    "name": "balance",
                    "type": "uint256"
                }
            ],
            "name": "Deposit",
            "type": "event"
        },
        {
            "anonymous": false,
            "inputs": [
                {
                    "indexed": true,
                    "internalType": "address",
                    "name": "owner",
                    "type": "address"
                },
                {
                    "indexed": true,
                    "internalType": "uint256",
                    "name": "txIndex",
                    "type": "uint256"
                }
            ],
            "name": "ExecuteTxn",
            "type": "event"
        },
        {
            "anonymous": false,
            "inputs": [
                {
                    "indexed": true,
                    "internalType": "address",
                    "name": "owner",
                    "type": "address"
                },
                {
                    "indexed": true,
                    "internalType": "uint256",
                    "name": "txIndex",
                    "type": "uint256"
                }
            ],
            "name": "RevokeTxn",
            "type": "event"
        },
        {
            "anonymous": false,
            "inputs": [
                {
                    "indexed": true,
                    "internalType": "address",
                    "name": "owner",
                    "type": "address"
                },
                {
                    "indexed": true,
                    "internalType": "uint256",
                    "name": "txIndex",
                    "type": "uint256"
                },
                {
                    "indexed": true,
                    "internalType": "address",
                    "name": "to",
                    "type": "address"
                },
                {
                    "indexed": false,
                    "internalType": "uint256",
                    "name": "value",
                    "type": "uint256"
                },
                {
                    "indexed": false,
                    "internalType": "bytes",
                    "name": "data",
                    "type": "bytes"
                }
            ],
            "name": "SubmitTxn",
            "type": "event"
        },
        {
            "inputs": [
                {
                    "internalType": "uint256",
                    "name": "_txIndex",
                    "type": "uint256"
                }
            ],
            "name": "confirmTxn",
            "outputs": [],
            "stateMutability": "nonpayable",
            "type": "function"
        },
        {
            "inputs": [],
            "name": "deposit",
            "outputs": [],
            "stateMutability": "payable",
            "type": "function"
        },
        {
            "inputs": [
                {
                    "internalType": "uint256",
                    "name": "_txIndex",
                    "type": "uint256"
                }
            ],
            "name": "executeTxn",
            "outputs": [],
            "stateMutability": "nonpayable",
            "type": "function"
        },
        {
            "inputs": [
                {
                    "internalType": "address",
                    "name": "",
                    "type": "address"
                }
            ],
            "name": "isOwner",
            "outputs": [
                {
                    "internalType": "bool",
                    "name": "",
                    "type": "bool"
                }
            ],
            "stateMutability": "view",
            "type": "function"
        },
        {
            "inputs": [],
            "name": "numConfirmationsRequired",
            "outputs": [
                {
                    "internalType": "uint256",
                    "name": "",
                    "type": "uint256"
                }
            ],
            "stateMutability": "view",
            "type": "function"
        },
        {
            "inputs": [
                {
                    "internalType": "uint256",
                    "name": "",
                    "type": "uint256"
                }
            ],
            "name": "owners",
            "outputs": [
                {
                    "internalType": "address",
                    "name": "",
                    "type": "address"
                }
            ],
            "stateMutability": "view",
            "type": "function"
        },
        {
            "inputs": [
                {
                    "internalType": "uint256",
                    "name": "_txIndex",
                    "type": "uint256"
                }
            ],
            "name": "revokeTxn",
            "outputs": [],
            "stateMutability": "nonpayable",
            "type": "function"
        },
        {
            "inputs": [
                {
                    "internalType": "address",
                    "name": "_to",
                    "type": "address"
                },
                {
                    "internalType": "uint256",
                    "name": "_value",
                    "type": "uint256"
                },
                {
                    "internalType": "bytes",
                    "name": "data",
                    "type": "bytes"
                }
            ],
            "name": "submitTxn",
            "outputs": [],
            "stateMutability": "nonpayable",
            "type": "function"
        },
        {
            "inputs": [
                {
                    "internalType": "uint256",
                    "name": "",
                    "type": "uint256"
                }
            ],
            "name": "transactions",
            "outputs": [
                {
                    "internalType": "address",
                    "name": "to",
                    "type": "address"
                },
                {
                    "internalType": "uint256",
                    "name": "value",
                    "type": "uint256"
                },
                {
                    "internalType": "bytes",
                    "name": "data",
                    "type": "bytes"
                },
                {
                    "internalType": "bool",
                    "name": "executed",
                    "type": "bool"
                },
                {
                    "internalType": "uint256",
                    "name": "numConfirmations",
                    "type": "uint256"
                }
            ],
            "stateMutability": "view",
            "type": "function"
        },
        {
            "stateMutability": "payable",
            "type": "receive"
        }
    ],
    "bytecode": "60806040523480156200001157600080fd5b506040516200125a3803806200125a83398101604081905262000034916200027e565b60008251116200007d5760405162461bcd60e51b815260206004820152600f60248201526e1bdddb995c9cc81c995c5d5a5c9959608a1b60448201526064015b60405180910390fd5b6000811180156200008f575081518111155b620000eb5760405162461bcd60e51b815260206004820152602560248201527f496e76616c6964206e6f2e206f6620726571756972656420636f6e6669726d6160448201526474696f6e7360d81b606482015260840162000074565b60005b8251811015620002405760008382815181106200010f576200010f62000358565b6020026020010151905060006001600160a01b0316816001600160a01b0316036200016d5760405162461bcd60e51b815260206004820152600d60248201526c34b73b30b634b21037bbb732b960991b604482015260640162000074565b6001600160a01b03811660009081526001602052604090205460ff1615620001cb5760405162461bcd60e51b815260206004820152601060248201526f6f776e6572206e6f7420756e6971756560801b604482015260640162000074565b6001600160a01b031660008181526001602081905260408220805460ff191682179055815490810182559080527f290decd9548b62a8d60345a988386fc84ba6bc95484008f6362f93160ef3e5630180546001600160a01b03191690911790558062000237816200036e565b915050620000ee565b506002555062000396565b634e487b7160e01b600052604160045260246000fd5b80516001600160a01b03811681146200027957600080fd5b919050565b600080604083850312156200029257600080fd5b82516001600160401b0380821115620002aa57600080fd5b818501915085601f830112620002bf57600080fd5b8151602082821115620002d657620002d66200024b565b8160051b604051601f19603f83011681018181108682111715620002fe57620002fe6200024b565b6040529283528183019350848101820192898411156200031d57600080fd5b948201945b838610156200034657620003368662000261565b8552948201949382019362000322565b97909101519698969750505050505050565b634e487b7160e01b600052603260045260246000fd5b6000600182016200038f57634e487b7160e01b600052601160045260246000fd5b5060010190565b610eb480620003a66000396000f3fe60806040526004361061008a5760003560e01c80639ace38c2116100595780639ace38c21461018f578063b15bb933146101c0578063d0549b85146101e0578063d0e30db014610204578063dbc389401461020c57600080fd5b8063025e7c27146100d057806309bcf3e81461010d5780632f54bf6e1461012f5780635a6f04f31461016f57600080fd5b366100cb576040805134815247602082015233917f90890809c654f11d6e72a28fa60149770a0d11ec6c92319d6ceb2bb0a4ea1a15910160405180910390a2005b600080fd5b3480156100dc57600080fd5b506100f06100eb366004610a08565b61022c565b6040516001600160a01b0390911681526020015b60405180910390f35b34801561011957600080fd5b5061012d610128366004610a08565b610256565b005b34801561013b57600080fd5b5061015f61014a366004610a3d565b60016020526000908152604090205460ff1681565b6040519015158152602001610104565b34801561017b57600080fd5b5061012d61018a366004610a08565b6103f6565b34801561019b57600080fd5b506101af6101aa366004610a08565b610580565b604051610104959493929190610aa5565b3480156101cc57600080fd5b5061012d6101db366004610af6565b610659565b3480156101ec57600080fd5b506101f660025481565b604051908152602001610104565b61012d6107d9565b34801561021857600080fd5b5061012d610227366004610a08565b610815565b6000818154811061023c57600080fd5b6000918252602090912001546001600160a01b0316905081565b3360009081526001602052604090205460ff1661028e5760405162461bcd60e51b815260040161028590610bc1565b60405180910390fd5b600454819081106102b15760405162461bcd60e51b815260040161028590610be4565b81600481815481106102c5576102c5610c0f565b600091825260209091206003600590920201015460ff16156102f95760405162461bcd60e51b815260040161028590610c25565b6000838152600360209081526040808320338452909152902054839060ff161561035c5760405162461bcd60e51b81526020600482015260146024820152731d1e08185b1c9958591e4818dbdb999a5c9b595960621b6044820152606401610285565b60006004858154811061037157610371610c0f565b600091825260208083208884526003825260408085203386529092529083208054600160ff199091168117909155600592909202016004810180549194509192906103bd908490610c72565b9091555050604051859033907faa10ae297ba44d5deb2eb30ce1b3f020cb0015bbbdc61fd10a023510ff4e6a6990600090a35050505050565b3360009081526001602052604090205460ff166104255760405162461bcd60e51b815260040161028590610bc1565b600454819081106104485760405162461bcd60e51b815260040161028590610be4565b816004818154811061045c5761045c610c0f565b600091825260209091206003600590920201015460ff16156104905760405162461bcd60e51b815260040161028590610c25565b6000600484815481106104a5576104a5610c0f565b600091825260208083208784526003825260408085203386529092529220546005909102909101915060ff166105125760405162461bcd60e51b81526020600482015260126024820152711d1e1b8b881b9bdd0818dbdb999a5c9b595960721b6044820152606401610285565b60008481526003602090815260408083203384529091528120805460ff1916905560048201805460019290610548908490610c8b565b9091555050604051849033907f70b87a7ef491fb2c1e1efe6cfcb7450ad7b752041d95b4efdfe9b28bed8c3c0b90600090a350505050565b6004818154811061059057600080fd5b60009182526020909120600590910201805460018201546002830180546001600160a01b0390931694509092916105c690610c9e565b80601f01602080910402602001604051908101604052809291908181526020018280546105f290610c9e565b801561063f5780601f106106145761010080835404028352916020019161063f565b820191906000526020600020905b81548152906001019060200180831161062257829003601f168201915b505050506003830154600490930154919260ff1691905085565b3360009081526001602052604090205460ff166106885760405162461bcd60e51b815260040161028590610bc1565b600480546040805160a0810182526001600160a01b03878116825260208201878152928201868152600060608401819052608084018190526001860187559590955281517f8a35acfbc15ff81a39ae7d344fd709f28e8600b4aa8c65c6b64bfe7fe36bd19b6005860290810180546001600160a01b0319169290931691909117825592517f8a35acfbc15ff81a39ae7d344fd709f28e8600b4aa8c65c6b64bfe7fe36bd19c84015593519293909290917f8a35acfbc15ff81a39ae7d344fd709f28e8600b4aa8c65c6b64bfe7fe36bd19d01906107659082610d27565b50606082015160038201805460ff19169115159190911790556080909101516004909101556040516001600160a01b03851690829033907fcc12bb77e166abc5c1e2b940508a982d445b8e51ada349e28637c53ccec083af906107cb9088908890610de7565b60405180910390a450505050565b6040805134815247602082015233917f90890809c654f11d6e72a28fa60149770a0d11ec6c92319d6ceb2bb0a4ea1a15910160405180910390a2565b3360009081526001602052604090205460ff166108445760405162461bcd60e51b815260040161028590610bc1565b600454819081106108675760405162461bcd60e51b815260040161028590610be4565b816004818154811061087b5761087b610c0f565b600091825260209091206003600590920201015460ff16156108af5760405162461bcd60e51b815260040161028590610c25565b6000600484815481106108c4576108c4610c0f565b906000526020600020906005020190506002548160040154101561091e5760405162461bcd60e51b81526020600482015260116024820152700c6c2dcdcdee840caf0cac6eae8ca40e8f607b1b6044820152606401610285565b60038101805460ff191660019081179091558154908201546040516000926001600160a01b03169190610955906002860190610e08565b60006040518083038185875af1925050503d8060008114610992576040519150601f19603f3d011682016040523d82523d6000602084013e610997565b606091505b50509050806109d45760405162461bcd60e51b81526020600482015260096024820152681d1e0819985a5b195960ba1b6044820152606401610285565b604051859033907f27b783523defb42b9664ae5b54f956f7b559c1abe141329e2d70043686adb07f90600090a35050505050565b600060208284031215610a1a57600080fd5b5035919050565b80356001600160a01b0381168114610a3857600080fd5b919050565b600060208284031215610a4f57600080fd5b610a5882610a21565b9392505050565b6000815180845260005b81811015610a8557602081850181015186830182015201610a69565b506000602082860101526020601f19601f83011685010191505092915050565b60018060a01b038616815284602082015260a060408201526000610acc60a0830186610a5f565b931515606083015250608001529392505050565b634e487b7160e01b600052604160045260246000fd5b600080600060608486031215610b0b57600080fd5b610b1484610a21565b925060208401359150604084013567ffffffffffffffff80821115610b3857600080fd5b818601915086601f830112610b4c57600080fd5b813581811115610b5e57610b5e610ae0565b604051601f8201601f19908116603f01168101908382118183101715610b8657610b86610ae0565b81604052828152896020848701011115610b9f57600080fd5b8260208601602083013760006020848301015280955050505050509250925092565b6020808252600990820152683737ba1037bbb732b960b91b604082015260600190565b6020808252601190820152701d1e08191bd95cc81b9bdd08195e1a5cdd607a1b604082015260600190565b634e487b7160e01b600052603260045260246000fd5b6020808252601f908201527f5472616e73616374696f6e20697320616c726561647920657865637574656400604082015260600190565b634e487b7160e01b600052601160045260246000fd5b80820180821115610c8557610c85610c5c565b92915050565b81810381811115610c8557610c85610c5c565b600181811c90821680610cb257607f821691505b602082108103610cd257634e487b7160e01b600052602260045260246000fd5b50919050565b601f821115610d2257600081815260208120601f850160051c81016020861015610cff5750805b601f850160051c820191505b81811015610d1e57828155600101610d0b565b5050505b505050565b815167ffffffffffffffff811115610d4157610d41610ae0565b610d5581610d4f8454610c9e565b84610cd8565b602080601f831160018114610d8a5760008415610d725750858301515b600019600386901b1c1916600185901b178555610d1e565b600085815260208120601f198616915b82811015610db957888601518255948401946001909101908401610d9a565b5085821015610dd75787850151600019600388901b60f8161c191681555b5050505050600190811b01905550565b828152604060208201526000610e006040830184610a5f565b949350505050565b6000808354610e1681610c9e565b60018281168015610e2e5760018114610e4357610e72565b60ff1984168752821515830287019450610e72565b8760005260208060002060005b85811015610e695781548a820152908401908201610e50565b50505082870194505b5092969550505050505056fea2646970667358221220faf31c6ea7e3261985c9e4c7a10170a565b43d02642c10252317802ffff47cda64736f6c63430008110033",
    "sourcePath": "d:/Solidity Projects/multiSigWallet/contracts/multiSigWallet.sol",
    "compiler": {
        "name": "solc",
        "version": "0.8.17+commit.8df45f5f"
    },
    "functionHashes": {
        "confirmTxn(uint256)": "09bcf3e8",
        "deposit()": "d0e30db0",
        "executeTxn(uint256)": "dbc38940",
        "isOwner(address)": "2f54bf6e",
        "numConfirmationsRequired()": "d0549b85",
        "owners(uint256)": "025e7c27",
        "revokeTxn(uint256)": "5a6f04f3",
        "submitTxn(address,uint256,bytes)": "b15bb933",
        "transactions(uint256)": "9ace38c2"
    },
    "gasEstimates": {
        "creation": {
            "codeDepositCost": "752800",
            "executionCost": "infinite",
            "totalCost": "infinite"
        },
        "external": {
            "confirmTxn(uint256)": "63600",
            "deposit()": "1898",
            "executeTxn(uint256)": "infinite",
            "isOwner(address)": "2576",
            "numConfirmationsRequired()": "2339",
            "owners(uint256)": "4604",
            "revokeTxn(uint256)": "63612",
            "submitTxn(address,uint256,bytes)": "infinite",
            "transactions(uint256)": "infinite"
        }
    }
}