{
  "contractName": "Wallet",
  "abi": [
    {
      "inputs": [
        {
          "internalType": "address[]",
          "name": "_owners",
          "type": "address[]"
        },
        {
          "internalType": "uint256",
          "name": "_numConfirmationsRequired",
          "type": "uint256"
        }
      ],
      "stateMutability": "nonpayable",
      "type": "constructor"
    },
    {
      "anonymous": false,
      "inputs": [
        {
          "indexed": true,
          "internalType": "address",
          "name": "owner",
          "type": "address"
        },
        {
          "indexed": true,
          "internalType": "uint256",
          "name": "txIndex",
          "type": "uint256"
        }
      ],
      "name": "ConfirmTxn",
      "type": "event"
    },
    {
      "anonymous": false,
      "inputs": [
        {
          "indexed": true,
          "internalType": "address",
          "name": "sender",
          "type": "address"
        },
        {
          "indexed": false,
          "internalType": "uint256",
          "name": "amount",
          "type": "uint256"
        },
        {
          "indexed": false,
          "internalType": "uint256",
          "name": "balance",
          "type": "uint256"
        }
      ],
      "name": "Deposit",
      "type": "event"
    },
    {
      "anonymous": false,
      "inputs": [
        {
          "indexed": true,
          "internalType": "address",
          "name": "owner",
          "type": "address"
        },
        {
          "indexed": true,
          "internalType": "uint256",
          "name": "txIndex",
          "type": "uint256"
        }
      ],
      "name": "ExecuteTxn",
      "type": "event"
    },
    {
      "anonymous": false,
      "inputs": [
        {
          "indexed": true,
          "internalType": "address",
          "name": "owner",
          "type": "address"
        },
        {
          "indexed": true,
          "internalType": "uint256",
          "name": "txIndex",
          "type": "uint256"
        }
      ],
      "name": "RevokeTxn",
      "type": "event"
    },
    {
      "anonymous": false,
      "inputs": [
        {
          "indexed": true,
          "internalType": "address",
          "name": "owner",
          "type": "address"
        },
        {
          "indexed": true,
          "internalType": "uint256",
          "name": "txIndex",
          "type": "uint256"
        },
        {
          "indexed": true,
          "internalType": "address",
          "name": "to",
          "type": "address"
        },
        {
          "indexed": false,
          "internalType": "uint256",
          "name": "value",
          "type": "uint256"
        },
        {
          "indexed": false,
          "internalType": "bytes",
          "name": "data",
          "type": "bytes"
        }
      ],
      "name": "SubmitTxn",
      "type": "event"
    },
    {
      "inputs": [
        {
          "internalType": "address",
          "name": "",
          "type": "address"
        }
      ],
      "name": "isOwner",
      "outputs": [
        {
          "internalType": "bool",
          "name": "",
          "type": "bool"
        }
      ],
      "stateMutability": "view",
      "type": "function"
    },
    {
      "inputs": [],
      "name": "numConfirmationsRequired",
      "outputs": [
        {
          "internalType": "uint256",
          "name": "",
          "type": "uint256"
        }
      ],
      "stateMutability": "view",
      "type": "function"
    },
    {
      "inputs": [
        {
          "internalType": "uint256",
          "name": "",
          "type": "uint256"
        }
      ],
      "name": "owners",
      "outputs": [
        {
          "internalType": "address",
          "name": "",
          "type": "address"
        }
      ],
      "stateMutability": "view",
      "type": "function"
    },
    {
      "inputs": [
        {
          "internalType": "uint256",
          "name": "",
          "type": "uint256"
        }
      ],
      "name": "transactions",
      "outputs": [
        {
          "internalType": "address",
          "name": "to",
          "type": "address"
        },
        {
          "internalType": "uint256",
          "name": "value",
          "type": "uint256"
        },
        {
          "internalType": "bytes",
          "name": "data",
          "type": "bytes"
        },
        {
          "internalType": "bool",
          "name": "executed",
          "type": "bool"
        },
        {
          "internalType": "uint256",
          "name": "numConfirmations",
          "type": "uint256"
        }
      ],
      "stateMutability": "view",
      "type": "function"
    },
    {
      "stateMutability": "payable",
      "type": "receive"
    },
    {
      "inputs": [],
      "name": "deposit",
      "outputs": [],
      "stateMutability": "payable",
      "type": "function"
    },
    {
      "inputs": [
        {
          "internalType": "address",
          "name": "_to",
          "type": "address"
        },
        {
          "internalType": "uint256",
          "name": "_value",
          "type": "uint256"
        },
        {
          "internalType": "bytes",
          "name": "data",
          "type": "bytes"
        }
      ],
      "name": "submitTxn",
      "outputs": [],
      "stateMutability": "nonpayable",
      "type": "function"
    },
    {
      "inputs": [
        {
          "internalType": "uint256",
          "name": "_txIndex",
          "type": "uint256"
        }
      ],
      "name": "confirmTxn",
      "outputs": [],
      "stateMutability": "nonpayable",
      "type": "function"
    },
    {
      "inputs": [
        {
          "internalType": "uint256",
          "name": "_txIndex",
          "type": "uint256"
        }
      ],
      "name": "executeTxn",
      "outputs": [],
      "stateMutability": "nonpayable",
      "type": "function"
    },
    {
      "inputs": [
        {
          "internalType": "uint256",
          "name": "_txIndex",
          "type": "uint256"
        }
      ],
      "name": "revokeTxn",
      "outputs": [],
      "stateMutability": "nonpayable",
      "type": "function"
    }
  ],
  "bytecode": "0x60806040523480156200001157600080fd5b50604051620023023803806200230283398181016040528101906200003791906200050d565b60008251116200007e576040517f08c379a00000000000000000000000000000000000000000000000000000000081526004016200007590620005d4565b60405180910390fd5b60008111801562000090575081518111155b620000d2576040517f08c379a0000000000000000000000000000000000000000000000000000000008152600401620000c9906200066c565b60405180910390fd5b60005b8251811015620002d4576000838281518110620000f757620000f66200068e565b5b60200260200101519050600073ffffffffffffffffffffffffffffffffffffffff168173ffffffffffffffffffffffffffffffffffffffff160362000173576040517f08c379a00000000000000000000000000000000000000000000000000000000081526004016200016a906200070d565b60405180910390fd5b600160008273ffffffffffffffffffffffffffffffffffffffff1673ffffffffffffffffffffffffffffffffffffffff16815260200190815260200160002060009054906101000a900460ff161562000203576040517f08c379a0000000000000000000000000000000000000000000000000000000008152600401620001fa906200077f565b60405180910390fd5b60018060008373ffffffffffffffffffffffffffffffffffffffff1673ffffffffffffffffffffffffffffffffffffffff16815260200190815260200160002060006101000a81548160ff0219169083151502179055506000819080600181540180825580915050600190039060005260206000200160009091909190916101000a81548173ffffffffffffffffffffffffffffffffffffffff021916908373ffffffffffffffffffffffffffffffffffffffff160217905550508080620002cb90620007d0565b915050620000d5565b508060028190555050506200081d565b6000604051905090565b600080fd5b600080fd5b600080fd5b6000601f19601f8301169050919050565b7f4e487b7100000000000000000000000000000000000000000000000000000000600052604160045260246000fd5b6200034882620002fd565b810181811067ffffffffffffffff821117156200036a57620003696200030e565b5b80604052505050565b60006200037f620002e4565b90506200038d82826200033d565b919050565b600067ffffffffffffffff821115620003b057620003af6200030e565b5b602082029050602081019050919050565b600080fd5b600073ffffffffffffffffffffffffffffffffffffffff82169050919050565b6000620003f382620003c6565b9050919050565b6200040581620003e6565b81146200041157600080fd5b50565b6000815190506200042581620003fa565b92915050565b6000620004426200043c8462000392565b62000373565b90508083825260208201905060208402830185811115620004685762000467620003c1565b5b835b8181101562000495578062000480888262000414565b8452602084019350506020810190506200046a565b5050509392505050565b600082601f830112620004b757620004b6620002f8565b5b8151620004c98482602086016200042b565b91505092915050565b6000819050919050565b620004e781620004d2565b8114620004f357600080fd5b50565b6000815190506200050781620004dc565b92915050565b60008060408385031215620005275762000526620002ee565b5b600083015167ffffffffffffffff811115620005485762000547620002f3565b5b62000556858286016200049f565b92505060206200056985828601620004f6565b9150509250929050565b600082825260208201905092915050565b7f6f776e6572732072657175697265640000000000000000000000000000000000600082015250565b6000620005bc600f8362000573565b9150620005c98262000584565b602082019050919050565b60006020820190508181036000830152620005ef81620005ad565b9050919050565b7f496e76616c6964206e6f2e206f6620726571756972656420636f6e6669726d6160008201527f74696f6e73000000000000000000000000000000000000000000000000000000602082015250565b60006200065460258362000573565b91506200066182620005f6565b604082019050919050565b60006020820190508181036000830152620006878162000645565b9050919050565b7f4e487b7100000000000000000000000000000000000000000000000000000000600052603260045260246000fd5b7f696e76616c6964206f776e657200000000000000000000000000000000000000600082015250565b6000620006f5600d8362000573565b91506200070282620006bd565b602082019050919050565b600060208201905081810360008301526200072881620006e6565b9050919050565b7f6f776e6572206e6f7420756e6971756500000000000000000000000000000000600082015250565b60006200076760108362000573565b915062000774826200072f565b602082019050919050565b600060208201905081810360008301526200079a8162000758565b9050919050565b7f4e487b7100000000000000000000000000000000000000000000000000000000600052601160045260246000fd5b6000620007dd82620004d2565b91507fffffffffffffffffffffffffffffffffffffffffffffffffffffffffffffffff8203620008125762000811620007a1565b5b600182019050919050565b611ad5806200082d6000396000f3fe60806040526004361061008a5760003560e01c80639ace38c2116100595780639ace38c2146101b2578063b15bb933146101f3578063d0549b851461021c578063d0e30db014610247578063dbc3894014610251576100e1565b8063025e7c27146100e657806309bcf3e8146101235780632f54bf6e1461014c5780635a6f04f314610189576100e1565b366100e1573373ffffffffffffffffffffffffffffffffffffffff167f90890809c654f11d6e72a28fa60149770a0d11ec6c92319d6ceb2bb0a4ea1a1534476040516100d7929190610ef7565b60405180910390a2005b600080fd5b3480156100f257600080fd5b5061010d60048036038101906101089190610f60565b61027a565b60405161011a9190610fce565b60405180910390f35b34801561012f57600080fd5b5061014a60048036038101906101459190610f60565b6102b9565b005b34801561015857600080fd5b50610173600480360381019061016e9190611015565b610596565b604051610180919061105d565b60405180910390f35b34801561019557600080fd5b506101b060048036038101906101ab9190610f60565b6105b6565b005b3480156101be57600080fd5b506101d960048036038101906101d49190610f60565b610890565b6040516101ea959493929190611108565b60405180910390f35b3480156101ff57600080fd5b5061021a60048036038101906102159190611297565b61098b565b005b34801561022857600080fd5b50610231610b8e565b60405161023e9190611306565b60405180910390f35b61024f610b94565b005b34801561025d57600080fd5b5061027860048036038101906102739190610f60565b610be6565b005b6000818154811061028a57600080fd5b906000526020600020016000915054906101000a900473ffffffffffffffffffffffffffffffffffffffff1681565b600160003373ffffffffffffffffffffffffffffffffffffffff1673ffffffffffffffffffffffffffffffffffffffff16815260200190815260200160002060009054906101000a900460ff16610345576040517f08c379a000000000000000000000000000000000000000000000000000000000815260040161033c9061137e565b60405180910390fd5b80600480549050811061038d576040517f08c379a0000000000000000000000000000000000000000000000000000000008152600401610384906113ea565b60405180910390fd5b81600481815481106103a2576103a161140a565b5b906000526020600020906005020160030160009054906101000a900460ff1615610401576040517f08c379a00000000000000000000000000000000000000000000000000000000081526004016103f890611485565b60405180910390fd5b826003600082815260200190815260200160002060003373ffffffffffffffffffffffffffffffffffffffff1673ffffffffffffffffffffffffffffffffffffffff16815260200190815260200160002060009054906101000a900460ff16156104a0576040517f08c379a0000000000000000000000000000000000000000000000000000000008152600401610497906114f1565b60405180910390fd5b6000600485815481106104b6576104b561140a565b5b9060005260206000209060050201905060016003600087815260200190815260200160002060003373ffffffffffffffffffffffffffffffffffffffff1673ffffffffffffffffffffffffffffffffffffffff16815260200190815260200160002060006101000a81548160ff02191690831515021790555060018160040160008282546105449190611540565b92505081905550843373ffffffffffffffffffffffffffffffffffffffff167faa10ae297ba44d5deb2eb30ce1b3f020cb0015bbbdc61fd10a023510ff4e6a6960405160405180910390a35050505050565b60016020528060005260406000206000915054906101000a900460ff1681565b600160003373ffffffffffffffffffffffffffffffffffffffff1673ffffffffffffffffffffffffffffffffffffffff16815260200190815260200160002060009054906101000a900460ff16610642576040517f08c379a00000000000000000000000000000000000000000000000000000000081526004016106399061137e565b60405180910390fd5b80600480549050811061068a576040517f08c379a0000000000000000000000000000000000000000000000000000000008152600401610681906113ea565b60405180910390fd5b816004818154811061069f5761069e61140a565b5b906000526020600020906005020160030160009054906101000a900460ff16156106fe576040517f08c379a00000000000000000000000000000000000000000000000000000000081526004016106f590611485565b60405180910390fd5b6000600484815481106107145761071361140a565b5b906000526020600020906005020190506003600085815260200190815260200160002060003373ffffffffffffffffffffffffffffffffffffffff1673ffffffffffffffffffffffffffffffffffffffff16815260200190815260200160002060009054906101000a900460ff166107c1576040517f08c379a00000000000000000000000000000000000000000000000000000000081526004016107b8906115c0565b60405180910390fd5b60006003600086815260200190815260200160002060003373ffffffffffffffffffffffffffffffffffffffff1673ffffffffffffffffffffffffffffffffffffffff16815260200190815260200160002060006101000a81548160ff021916908315150217905550600181600401600082825461083f91906115e0565b92505081905550833373ffffffffffffffffffffffffffffffffffffffff167f70b87a7ef491fb2c1e1efe6cfcb7450ad7b752041d95b4efdfe9b28bed8c3c0b60405160405180910390a350505050565b600481815481106108a057600080fd5b90600052602060002090600502016000915090508060000160009054906101000a900473ffffffffffffffffffffffffffffffffffffffff16908060010154908060020180546108ef90611643565b80601f016020809104026020016040519081016040528092919081815260200182805461091b90611643565b80156109685780601f1061093d57610100808354040283529160200191610968565b820191906000526020600020905b81548152906001019060200180831161094b57829003601f168201915b5050505050908060030160009054906101000a900460ff16908060040154905085565b600160003373ffffffffffffffffffffffffffffffffffffffff1673ffffffffffffffffffffffffffffffffffffffff16815260200190815260200160002060009054906101000a900460ff16610a17576040517f08c379a0000000000000000000000000000000000000000000000000000000008152600401610a0e9061137e565b60405180910390fd5b6000600480549050905060046040518060a001604052808673ffffffffffffffffffffffffffffffffffffffff1681526020018581526020018481526020016000151581526020016000815250908060018154018082558091505060019003906000526020600020906005020160009091909190915060008201518160000160006101000a81548173ffffffffffffffffffffffffffffffffffffffff021916908373ffffffffffffffffffffffffffffffffffffffff160217905550602082015181600101556040820151816002019081610af39190611820565b5060608201518160030160006101000a81548160ff0219169083151502179055506080820151816004015550508373ffffffffffffffffffffffffffffffffffffffff16813373ffffffffffffffffffffffffffffffffffffffff167fcc12bb77e166abc5c1e2b940508a982d445b8e51ada349e28637c53ccec083af8686604051610b809291906118f2565b60405180910390a450505050565b60025481565b3373ffffffffffffffffffffffffffffffffffffffff167f90890809c654f11d6e72a28fa60149770a0d11ec6c92319d6ceb2bb0a4ea1a153447604051610bdc929190610ef7565b60405180910390a2565b600160003373ffffffffffffffffffffffffffffffffffffffff1673ffffffffffffffffffffffffffffffffffffffff16815260200190815260200160002060009054906101000a900460ff16610c72576040517f08c379a0000000000000000000000000000000000000000000000000000000008152600401610c699061137e565b60405180910390fd5b806004805490508110610cba576040517f08c379a0000000000000000000000000000000000000000000000000000000008152600401610cb1906113ea565b60405180910390fd5b8160048181548110610ccf57610cce61140a565b5b906000526020600020906005020160030160009054906101000a900460ff1615610d2e576040517f08c379a0000000000000000000000000000000000000000000000000000000008152600401610d2590611485565b60405180910390fd5b600060048481548110610d4457610d4361140a565b5b9060005260206000209060050201905060025481600401541015610d9d576040517f08c379a0000000000000000000000000000000000000000000000000000000008152600401610d949061196e565b60405180910390fd5b60018160030160006101000a81548160ff02191690831515021790555060008160000160009054906101000a900473ffffffffffffffffffffffffffffffffffffffff1673ffffffffffffffffffffffffffffffffffffffff16826001015483600201604051610e0d9190611a1c565b60006040518083038185875af1925050503d8060008114610e4a576040519150601f19603f3d011682016040523d82523d6000602084013e610e4f565b606091505b5050905080610e93576040517f08c379a0000000000000000000000000000000000000000000000000000000008152600401610e8a90611a7f565b60405180910390fd5b843373ffffffffffffffffffffffffffffffffffffffff167f27b783523defb42b9664ae5b54f956f7b559c1abe141329e2d70043686adb07f60405160405180910390a35050505050565b6000819050919050565b610ef181610ede565b82525050565b6000604082019050610f0c6000830185610ee8565b610f196020830184610ee8565b9392505050565b6000604051905090565b600080fd5b600080fd5b610f3d81610ede565b8114610f4857600080fd5b50565b600081359050610f5a81610f34565b92915050565b600060208284031215610f7657610f75610f2a565b5b6000610f8484828501610f4b565b91505092915050565b600073ffffffffffffffffffffffffffffffffffffffff82169050919050565b6000610fb882610f8d565b9050919050565b610fc881610fad565b82525050565b6000602082019050610fe36000830184610fbf565b92915050565b610ff281610fad565b8114610ffd57600080fd5b50565b60008135905061100f81610fe9565b92915050565b60006020828403121561102b5761102a610f2a565b5b600061103984828501611000565b91505092915050565b60008115159050919050565b61105781611042565b82525050565b6000602082019050611072600083018461104e565b92915050565b600081519050919050565b600082825260208201905092915050565b60005b838110156110b2578082015181840152602081019050611097565b60008484015250505050565b6000601f19601f8301169050919050565b60006110da82611078565b6110e48185611083565b93506110f4818560208601611094565b6110fd816110be565b840191505092915050565b600060a08201905061111d6000830188610fbf565b61112a6020830187610ee8565b818103604083015261113c81866110cf565b905061114b606083018561104e565b6111586080830184610ee8565b9695505050505050565b600080fd5b600080fd5b7f4e487b7100000000000000000000000000000000000000000000000000000000600052604160045260246000fd5b6111a4826110be565b810181811067ffffffffffffffff821117156111c3576111c261116c565b5b80604052505050565b60006111d6610f20565b90506111e2828261119b565b919050565b600067ffffffffffffffff8211156112025761120161116c565b5b61120b826110be565b9050602081019050919050565b82818337600083830152505050565b600061123a611235846111e7565b6111cc565b90508281526020810184848401111561125657611255611167565b5b611261848285611218565b509392505050565b600082601f83011261127e5761127d611162565b5b813561128e848260208601611227565b91505092915050565b6000806000606084860312156112b0576112af610f2a565b5b60006112be86828701611000565b93505060206112cf86828701610f4b565b925050604084013567ffffffffffffffff8111156112f0576112ef610f2f565b5b6112fc86828701611269565b9150509250925092565b600060208201905061131b6000830184610ee8565b92915050565b600082825260208201905092915050565b7f6e6f74206f776e65720000000000000000000000000000000000000000000000600082015250565b6000611368600983611321565b915061137382611332565b602082019050919050565b600060208201905081810360008301526113978161135b565b9050919050565b7f747820646f6573206e6f74206578697374000000000000000000000000000000600082015250565b60006113d4601183611321565b91506113df8261139e565b602082019050919050565b60006020820190508181036000830152611403816113c7565b9050919050565b7f4e487b7100000000000000000000000000000000000000000000000000000000600052603260045260246000fd5b7f5472616e73616374696f6e20697320616c726561647920657865637574656400600082015250565b600061146f601f83611321565b915061147a82611439565b602082019050919050565b6000602082019050818103600083015261149e81611462565b9050919050565b7f747820616c726561647920636f6e6669726d6564000000000000000000000000600082015250565b60006114db601483611321565b91506114e6826114a5565b602082019050919050565b6000602082019050818103600083015261150a816114ce565b9050919050565b7f4e487b7100000000000000000000000000000000000000000000000000000000600052601160045260246000fd5b600061154b82610ede565b915061155683610ede565b925082820190508082111561156e5761156d611511565b5b92915050565b7f74786e2e206e6f7420636f6e6669726d65640000000000000000000000000000600082015250565b60006115aa601283611321565b91506115b582611574565b602082019050919050565b600060208201905081810360008301526115d98161159d565b9050919050565b60006115eb82610ede565b91506115f683610ede565b925082820390508181111561160e5761160d611511565b5b92915050565b7f4e487b7100000000000000000000000000000000000000000000000000000000600052602260045260246000fd5b6000600282049050600182168061165b57607f821691505b60208210810361166e5761166d611614565b5b50919050565b60008190508160005260206000209050919050565b60006020601f8301049050919050565b600082821b905092915050565b6000600883026116d67fffffffffffffffffffffffffffffffffffffffffffffffffffffffffffffffff82611699565b6116e08683611699565b95508019841693508086168417925050509392505050565b6000819050919050565b600061171d61171861171384610ede565b6116f8565b610ede565b9050919050565b6000819050919050565b61173783611702565b61174b61174382611724565b8484546116a6565b825550505050565b600090565b611760611753565b61176b81848461172e565b505050565b5b8181101561178f57611784600082611758565b600181019050611771565b5050565b601f8211156117d4576117a581611674565b6117ae84611689565b810160208510156117bd578190505b6117d16117c985611689565b830182611770565b50505b505050565b600082821c905092915050565b60006117f7600019846008026117d9565b1980831691505092915050565b600061181083836117e6565b9150826002028217905092915050565b61182982611078565b67ffffffffffffffff8111156118425761184161116c565b5b61184c8254611643565b611857828285611793565b600060209050601f83116001811461188a5760008415611878578287015190505b6118828582611804565b8655506118ea565b601f19841661189886611674565b60005b828110156118c05784890151825560018201915060208501945060208101905061189b565b868310156118dd57848901516118d9601f8916826117e6565b8355505b6001600288020188555050505b505050505050565b60006040820190506119076000830185610ee8565b818103602083015261191981846110cf565b90509392505050565b7f63616e6e6f742065786563757465207478000000000000000000000000000000600082015250565b6000611958601183611321565b915061196382611922565b602082019050919050565b600060208201905081810360008301526119878161194b565b9050919050565b600081905092915050565b600081546119a681611643565b6119b0818661198e565b945060018216600081146119cb57600181146119e057611a13565b60ff1983168652811515820286019350611a13565b6119e985611674565b60005b83811015611a0b578154818901526001820191506020810190506119ec565b838801955050505b50505092915050565b6000611a288284611999565b915081905092915050565b7f7478206661696c65640000000000000000000000000000000000000000000000600082015250565b6000611a69600983611321565b9150611a7482611a33565b602082019050919050565b60006020820190508181036000830152611a9881611a5c565b905091905056fea2646970667358221220ee4d696d2b0699be283563d4c307e563fbd9c7bfc79817a79d943e94f5390a8b64736f6c63430008110033",
  "immutableReferences": {},
  "source": "// we are going to create a Multi-sig wallet\r\n// SPDX-License-Identifier: MIT\r\npragma solidity ^0.8.13;\r\n\r\ncontract Wallet{\r\n    event Deposit(address indexed sender, uint amount, uint balance);   // what is the use of event keyword here?\r\n    event SubmitTxn (\r\n        address indexed owner,\r\n        uint indexed txIndex,\r\n        address indexed to,\r\n        uint value,\r\n        bytes data\r\n    );\r\n    \r\n    event ConfirmTxn (address indexed owner, uint indexed txIndex);\r\n    event ExecuteTxn (address indexed owner, uint indexed txIndex);\r\n    event RevokeTxn  (address indexed owner, uint indexed txIndex);\r\n\r\n    address[] public owners;\r\n    mapping(address => bool) public isOwner;  // checking if there is a duplicate owner by mapping\r\n    uint public numConfirmationsRequired;\r\n\r\n    struct Transaction {\r\n        address to;\r\n        uint value;\r\n        bytes data;\r\n        bool executed;\r\n        uint numConfirmations;  // No. of owners that confirmed the txn.\r\n    }\r\n\r\n     // mapping from tx index => owner => bool\r\n    mapping(uint => mapping(address => bool)) isConfirmed; // address of owners who confirms the txns.\r\n    Transaction[] public transactions;\r\n\r\n    // uint totalAmt;  // Total amount in wallet\r\n    // address owner = msg.sender; \r\n\r\n    // Constructor that will initialize the state variables.\r\n    constructor (address[] memory _owners, uint _numConfirmationsRequired) {\r\n        require(_owners.length > 0, \"owners required\");\r\n\r\n        require(_numConfirmationsRequired > 0 && _numConfirmationsRequired <= _owners.length, \"Invalid no. of required confirmations\");\r\n        for(uint i = 0; i < _owners.length; i++){\r\n            address owner = _owners[i];\r\n\r\n            require(owner != address(0), \"invalid owner\");\r\n            require(!isOwner[owner], \"owner not unique\");  // y samajh nahi aaya\r\n            \r\n            isOwner[owner] = true;\r\n            owners.push(owner);\r\n        }\r\n        numConfirmationsRequired = _numConfirmationsRequired;\r\n    }\r\n\r\n    // Enabling this wallet to be able to receive ethers.\r\n    receive() external payable {\r\n        emit Deposit(msg.sender, msg.value, address(this).balance);\r\n    }\r\n\r\n//  NOTE: helper function to easily deposit in remox\r\n    function deposit() external payable  {\r\n        emit Deposit(msg.sender, msg.value, address(this).balance);\r\n    }\r\n    modifier onlyOwner() {\r\n        require(isOwner[msg.sender], \"not owner\");\r\n        _;\r\n    }\r\n\r\n    modifier txExists(uint _txIndex) {\r\n        require(_txIndex < transactions.length, \"tx does not exist\");\r\n        _;\r\n    }\r\n\r\n    modifier notExecuted(uint _txIndex) {\r\n        require(!transactions[_txIndex].executed, \"Transaction is already executed\");\r\n        _;\r\n    }\r\n\r\n    modifier notConfirmed(uint _txIndex) {\r\n        require(!isConfirmed[_txIndex][msg.sender], \"tx already confirmed\");\r\n        _;\r\n    }\r\n    // function deploy (owners, totalAmt, numConfirmationsRequired) view {\r\n\r\n    // }\r\n\r\n    function submitTxn(address _to, uint _value, bytes memory data) \r\n    public onlyOwner \r\n    {  \r\n        uint txIndex = transactions.length;\r\n\r\n        transactions.push(Transaction({  // initializing the struct variable\r\n            to: _to,\r\n            value: _value,\r\n            data: data,\r\n            executed: false,\r\n            numConfirmations: 0\r\n        }));\r\n\r\n        emit SubmitTxn(msg.sender, txIndex, _to, _value, data);\r\n     }\r\n\r\n    function confirmTxn(uint _txIndex) \r\n        public \r\n        onlyOwner\r\n        txExists(_txIndex)\r\n        notExecuted(_txIndex)\r\n        notConfirmed(_txIndex) // owner will only be able to confirm a txn once.\r\n    {\r\n        Transaction storage transaction = transactions[_txIndex];\r\n\r\n        isConfirmed[_txIndex][msg.sender] = true;\r\n        transaction.numConfirmations += 1;\r\n\r\n        emit ConfirmTxn(msg.sender, _txIndex);\r\n    }\r\n\r\n    function executeTxn(uint _txIndex) public \r\n    onlyOwner\r\n    txExists(_txIndex)\r\n    notExecuted(_txIndex)\r\n    {\r\n        Transaction storage transaction = transactions[_txIndex]; // y ni samajh aaya\r\n\r\n        require(transaction.numConfirmations >= numConfirmationsRequired, \"cannot execute tx\");\r\n        transaction.executed = true;\r\n\r\n        (bool success, ) = transaction.to.call{value: transaction.value}(transaction.data); // nahi aaya samajh\r\n        require(success, \"tx failed\");\r\n\r\n        emit ExecuteTxn(msg.sender, _txIndex);\r\n    }\r\n\r\n    function revokeTxn(uint _txIndex) public \r\n    onlyOwner\r\n    txExists(_txIndex)\r\n    notExecuted(_txIndex) \r\n    {\r\n        Transaction storage transaction = transactions[_txIndex];\r\n\r\n        require(isConfirmed[_txIndex][msg.sender], \"txn. not confirmed\"); // y yaha kyu aaya ?\r\n\r\n        isConfirmed[_txIndex][msg.sender] = false;\r\n        transaction.numConfirmations -=1;\r\n\r\n        emit RevokeTxn(msg.sender, _txIndex);\r\n    }\r\n}\r\n\r\n\r\n// owners\r\n// [\"0x5B38Da6a701c568545dCfcB03FcB875f56beddC4\", \"0xAb8483F64d9C6d1EcF9b849Ae677dD3315835cb2\", \"0x4B20993Bc481177ec7E8f571ceCaE8A9e22C02db\"]\r\n\r\n// Address to send ether to \r\n// 0x583031D1113aD414F02576BD6afaBfb302140225",
  "sourcePath": "D:\\Solidity Projects\\multiSigWallet\\contracts\\multiSigWallet.sol",
  "compiler": {
    "name": "solc",
    "version": "0.8.17+commit.8df45f5f.Emscripten.clang"
  },
  "schemaVersion": "3.4.10",
  "updatedAt": "2022-10-28T19:12:59.236Z",
  "devdoc": {
    "kind": "dev",
    "methods": {},
    "version": 1
  },
  "userdoc": {
    "kind": "user",
    "methods": {},
    "version": 1
  }
}